{
  "_format": "hh-sol-artifact-1",
  "contractName": "ArtERC721A",
  "sourceName": "contracts/ArtERC721A.sol",
  "abi": [
    {
      "inputs": [
        {
          "internalType": "address payable",
          "name": "_recipient",
          "type": "address"
        },
        {
          "internalType": "bytes32",
          "name": "_goldlistRoot",
          "type": "bytes32"
        },
        {
          "internalType": "bytes32",
          "name": "_whitelistRoot",
          "type": "bytes32"
        },
        {
          "internalType": "string",
          "name": "_baseURI",
          "type": "string"
        }
      ],
      "stateMutability": "nonpayable",
      "type": "constructor"
    },
    {
      "inputs": [],
      "name": "ApprovalCallerNotOwnerNorApproved",
      "type": "error"
    },
    {
      "inputs": [],
      "name": "ApprovalQueryForNonexistentToken",
      "type": "error"
    },
    {
      "inputs": [],
      "name": "ApprovalToCurrentOwner",
      "type": "error"
    },
    {
      "inputs": [],
      "name": "ApproveToCaller",
      "type": "error"
    },
    {
      "inputs": [],
      "name": "BalanceQueryForZeroAddress",
      "type": "error"
    },
    {
      "inputs": [],
      "name": "MintToZeroAddress",
      "type": "error"
    },
    {
      "inputs": [],
      "name": "MintZeroQuantity",
      "type": "error"
    },
    {
      "inputs": [],
      "name": "OwnerQueryForNonexistentToken",
      "type": "error"
    },
    {
      "inputs": [],
      "name": "TransferCallerNotOwnerNorApproved",
      "type": "error"
    },
    {
      "inputs": [],
      "name": "TransferFromIncorrectOwner",
      "type": "error"
    },
    {
      "inputs": [],
      "name": "TransferToNonERC721ReceiverImplementer",
      "type": "error"
    },
    {
      "inputs": [],
      "name": "TransferToZeroAddress",
      "type": "error"
    },
    {
      "anonymous": false,
      "inputs": [
        {
          "indexed": true,
          "internalType": "address",
          "name": "owner",
          "type": "address"
        },
        {
          "indexed": true,
          "internalType": "address",
          "name": "approved",
          "type": "address"
        },
        {
          "indexed": true,
          "internalType": "uint256",
          "name": "tokenId",
          "type": "uint256"
        }
      ],
      "name": "Approval",
      "type": "event"
    },
    {
      "anonymous": false,
      "inputs": [
        {
          "indexed": true,
          "internalType": "address",
          "name": "owner",
          "type": "address"
        },
        {
          "indexed": true,
          "internalType": "address",
          "name": "operator",
          "type": "address"
        },
        {
          "indexed": false,
          "internalType": "bool",
          "name": "approved",
          "type": "bool"
        }
      ],
      "name": "ApprovalForAll",
      "type": "event"
    },
    {
      "anonymous": false,
      "inputs": [
        {
          "indexed": true,
          "internalType": "address",
          "name": "previousOwner",
          "type": "address"
        },
        {
          "indexed": true,
          "internalType": "address",
          "name": "newOwner",
          "type": "address"
        }
      ],
      "name": "OwnershipTransferred",
      "type": "event"
    },
    {
      "anonymous": false,
      "inputs": [
        {
          "indexed": true,
          "internalType": "address",
          "name": "from",
          "type": "address"
        },
        {
          "indexed": true,
          "internalType": "address",
          "name": "to",
          "type": "address"
        },
        {
          "indexed": true,
          "internalType": "uint256",
          "name": "tokenId",
          "type": "uint256"
        }
      ],
      "name": "Transfer",
      "type": "event"
    },
    {
      "inputs": [
        {
          "internalType": "address",
          "name": "to",
          "type": "address"
        },
        {
          "internalType": "uint256",
          "name": "tokenId",
          "type": "uint256"
        }
      ],
      "name": "approve",
      "outputs": [],
      "stateMutability": "nonpayable",
      "type": "function"
    },
    {
      "inputs": [
        {
          "internalType": "address",
          "name": "owner",
          "type": "address"
        }
      ],
      "name": "balanceOf",
      "outputs": [
        {
          "internalType": "uint256",
          "name": "",
          "type": "uint256"
        }
      ],
      "stateMutability": "view",
      "type": "function"
    },
    {
      "inputs": [],
      "name": "baseURI",
      "outputs": [
        {
          "internalType": "string",
          "name": "",
          "type": "string"
        }
      ],
      "stateMutability": "view",
      "type": "function"
    },
    {
      "inputs": [
        {
          "internalType": "bool",
          "name": "status",
          "type": "bool"
        }
      ],
      "name": "enableMint",
      "outputs": [],
      "stateMutability": "nonpayable",
      "type": "function"
    },
    {
      "inputs": [
        {
          "internalType": "uint256",
          "name": "tokenId",
          "type": "uint256"
        }
      ],
      "name": "getApproved",
      "outputs": [
        {
          "internalType": "address",
          "name": "",
          "type": "address"
        }
      ],
      "stateMutability": "view",
      "type": "function"
    },
    {
      "inputs": [
        {
          "internalType": "address",
          "name": "_to",
          "type": "address"
        },
        {
          "internalType": "uint256",
          "name": "_quantity",
          "type": "uint256"
        }
      ],
      "name": "gift",
      "outputs": [],
      "stateMutability": "nonpayable",
      "type": "function"
    },
    {
      "inputs": [],
      "name": "goldSalePrice",
      "outputs": [
        {
          "internalType": "uint256",
          "name": "",
          "type": "uint256"
        }
      ],
      "stateMutability": "view",
      "type": "function"
    },
    {
      "inputs": [
        {
          "internalType": "address",
          "name": "_account",
          "type": "address"
        },
        {
          "internalType": "uint256",
          "name": "_quantity",
          "type": "uint256"
        },
        {
          "internalType": "bytes32[]",
          "name": "_proof",
          "type": "bytes32[]"
        }
      ],
      "name": "goldlistMint",
      "outputs": [],
      "stateMutability": "payable",
      "type": "function"
    },
    {
      "inputs": [],
      "name": "goldlistRoot",
      "outputs": [
        {
          "internalType": "bytes32",
          "name": "",
          "type": "bytes32"
        }
      ],
      "stateMutability": "view",
      "type": "function"
    },
    {
      "inputs": [
        {
          "internalType": "address",
          "name": "owner",
          "type": "address"
        },
        {
          "internalType": "address",
          "name": "operator",
          "type": "address"
        }
      ],
      "name": "isApprovedForAll",
      "outputs": [
        {
          "internalType": "bool",
          "name": "",
          "type": "bool"
        }
      ],
      "stateMutability": "view",
      "type": "function"
    },
    {
      "inputs": [],
      "name": "mintEnabled",
      "outputs": [
        {
          "internalType": "bool",
          "name": "",
          "type": "bool"
        }
      ],
      "stateMutability": "view",
      "type": "function"
    },
    {
      "inputs": [
        {
          "internalType": "address",
          "name": "",
          "type": "address"
        }
      ],
      "name": "mintedGoldlist",
      "outputs": [
        {
          "internalType": "uint256",
          "name": "",
          "type": "uint256"
        }
      ],
      "stateMutability": "view",
      "type": "function"
    },
    {
      "inputs": [
        {
          "internalType": "address",
          "name": "",
          "type": "address"
        }
      ],
      "name": "mintedPublicSale",
      "outputs": [
        {
          "internalType": "uint256",
          "name": "",
          "type": "uint256"
        }
      ],
      "stateMutability": "view",
      "type": "function"
    },
    {
      "inputs": [
        {
          "internalType": "address",
          "name": "",
          "type": "address"
        }
      ],
      "name": "mintedWhitelist",
      "outputs": [
        {
          "internalType": "uint256",
          "name": "",
          "type": "uint256"
        }
      ],
      "stateMutability": "view",
      "type": "function"
    },
    {
      "inputs": [],
      "name": "name",
      "outputs": [
        {
          "internalType": "string",
          "name": "",
          "type": "string"
        }
      ],
      "stateMutability": "view",
      "type": "function"
    },
    {
      "inputs": [],
      "name": "owner",
      "outputs": [
        {
          "internalType": "address",
          "name": "",
          "type": "address"
        }
      ],
      "stateMutability": "view",
      "type": "function"
    },
    {
      "inputs": [
        {
          "internalType": "uint256",
          "name": "tokenId",
          "type": "uint256"
        }
      ],
      "name": "ownerOf",
      "outputs": [
        {
          "internalType": "address",
          "name": "",
          "type": "address"
        }
      ],
      "stateMutability": "view",
      "type": "function"
    },
    {
      "inputs": [
        {
          "internalType": "address",
          "name": "_account",
          "type": "address"
        },
        {
          "internalType": "uint256",
          "name": "_quantity",
          "type": "uint256"
        }
      ],
      "name": "publicSaleMint",
      "outputs": [],
      "stateMutability": "payable",
      "type": "function"
    },
    {
      "inputs": [],
      "name": "publicSalePrice",
      "outputs": [
        {
          "internalType": "uint256",
          "name": "",
          "type": "uint256"
        }
      ],
      "stateMutability": "view",
      "type": "function"
    },
    {
      "inputs": [],
      "name": "recipient",
      "outputs": [
        {
          "internalType": "address payable",
          "name": "",
          "type": "address"
        }
      ],
      "stateMutability": "view",
      "type": "function"
    },
    {
      "inputs": [],
      "name": "renounceOwnership",
      "outputs": [],
      "stateMutability": "nonpayable",
      "type": "function"
    },
    {
      "inputs": [
        {
          "internalType": "address",
          "name": "from",
          "type": "address"
        },
        {
          "internalType": "address",
          "name": "to",
          "type": "address"
        },
        {
          "internalType": "uint256",
          "name": "tokenId",
          "type": "uint256"
        }
      ],
      "name": "safeTransferFrom",
      "outputs": [],
      "stateMutability": "nonpayable",
      "type": "function"
    },
    {
      "inputs": [
        {
          "internalType": "address",
          "name": "from",
          "type": "address"
        },
        {
          "internalType": "address",
          "name": "to",
          "type": "address"
        },
        {
          "internalType": "uint256",
          "name": "tokenId",
          "type": "uint256"
        },
        {
          "internalType": "bytes",
          "name": "_data",
          "type": "bytes"
        }
      ],
      "name": "safeTransferFrom",
      "outputs": [],
      "stateMutability": "nonpayable",
      "type": "function"
    },
    {
      "inputs": [],
      "name": "saleStartTime",
      "outputs": [
        {
          "internalType": "uint256",
          "name": "",
          "type": "uint256"
        }
      ],
      "stateMutability": "view",
      "type": "function"
    },
    {
      "inputs": [
        {
          "internalType": "address",
          "name": "operator",
          "type": "address"
        },
        {
          "internalType": "bool",
          "name": "approved",
          "type": "bool"
        }
      ],
      "name": "setApprovalForAll",
      "outputs": [],
      "stateMutability": "nonpayable",
      "type": "function"
    },
    {
      "inputs": [
        {
          "internalType": "string",
          "name": "_baseURI",
          "type": "string"
        }
      ],
      "name": "setBaseUri",
      "outputs": [],
      "stateMutability": "nonpayable",
      "type": "function"
    },
    {
      "inputs": [
        {
          "internalType": "uint256",
          "name": "price",
          "type": "uint256"
        }
      ],
      "name": "setGoldSalePrice",
      "outputs": [],
      "stateMutability": "nonpayable",
      "type": "function"
    },
    {
      "inputs": [
        {
          "internalType": "bytes32",
          "name": "_root",
          "type": "bytes32"
        }
      ],
      "name": "setGoldlistRoot",
      "outputs": [],
      "stateMutability": "nonpayable",
      "type": "function"
    },
    {
      "inputs": [
        {
          "internalType": "uint256",
          "name": "price",
          "type": "uint256"
        }
      ],
      "name": "setPublicSalePrice",
      "outputs": [],
      "stateMutability": "nonpayable",
      "type": "function"
    },
    {
      "inputs": [
        {
          "internalType": "uint256",
          "name": "_saleStartTime",
          "type": "uint256"
        }
      ],
      "name": "setSaleStartTime",
      "outputs": [],
      "stateMutability": "nonpayable",
      "type": "function"
    },
    {
      "inputs": [
        {
          "internalType": "uint256",
          "name": "price",
          "type": "uint256"
        }
      ],
      "name": "setWhiteSalePrice",
      "outputs": [],
      "stateMutability": "nonpayable",
      "type": "function"
    },
    {
      "inputs": [
        {
          "internalType": "bytes32",
          "name": "_root",
          "type": "bytes32"
        }
      ],
      "name": "setWhitelistRoot",
      "outputs": [],
      "stateMutability": "nonpayable",
      "type": "function"
    },
    {
      "inputs": [
        {
          "internalType": "bytes4",
          "name": "interfaceId",
          "type": "bytes4"
        }
      ],
      "name": "supportsInterface",
      "outputs": [
        {
          "internalType": "bool",
          "name": "",
          "type": "bool"
        }
      ],
      "stateMutability": "view",
      "type": "function"
    },
    {
      "inputs": [],
      "name": "symbol",
      "outputs": [
        {
          "internalType": "string",
          "name": "",
          "type": "string"
        }
      ],
      "stateMutability": "view",
      "type": "function"
    },
    {
      "inputs": [
        {
          "internalType": "uint256",
          "name": "_tokenId",
          "type": "uint256"
        }
      ],
      "name": "tokenURI",
      "outputs": [
        {
          "internalType": "string",
          "name": "",
          "type": "string"
        }
      ],
      "stateMutability": "view",
      "type": "function"
    },
    {
      "inputs": [],
      "name": "totalSupply",
      "outputs": [
        {
          "internalType": "uint256",
          "name": "",
          "type": "uint256"
        }
      ],
      "stateMutability": "view",
      "type": "function"
    },
    {
      "inputs": [
        {
          "internalType": "address",
          "name": "from",
          "type": "address"
        },
        {
          "internalType": "address",
          "name": "to",
          "type": "address"
        },
        {
          "internalType": "uint256",
          "name": "tokenId",
          "type": "uint256"
        }
      ],
      "name": "transferFrom",
      "outputs": [],
      "stateMutability": "nonpayable",
      "type": "function"
    },
    {
      "inputs": [
        {
          "internalType": "address",
          "name": "newOwner",
          "type": "address"
        }
      ],
      "name": "transferOwnership",
      "outputs": [],
      "stateMutability": "nonpayable",
      "type": "function"
    },
    {
      "inputs": [],
      "name": "whiteSalePrice",
      "outputs": [
        {
          "internalType": "uint256",
          "name": "",
          "type": "uint256"
        }
      ],
      "stateMutability": "view",
      "type": "function"
    },
    {
      "inputs": [
        {
          "internalType": "address",
          "name": "_account",
          "type": "address"
        },
        {
          "internalType": "uint256",
          "name": "_quantity",
          "type": "uint256"
        },
        {
          "internalType": "bytes32[]",
          "name": "_proof",
          "type": "bytes32[]"
        }
      ],
      "name": "whitelistMint",
      "outputs": [],
      "stateMutability": "payable",
      "type": "function"
    },
    {
      "inputs": [],
      "name": "whitelistRoot",
      "outputs": [
        {
          "internalType": "bytes32",
          "name": "",
          "type": "bytes32"
        }
      ],
      "stateMutability": "view",
      "type": "function"
    },
    {
      "stateMutability": "payable",
      "type": "receive"
    }
  ],
  "bytecode": "0x60806040526009805460ff1916600117905567039bb49f599a0000600a556703e2c284391c0000600b55670429d069189e0000600c5563628a5e00600d553480156200004a57600080fd5b5060405162002c4c38038062002c4c8339810160408190526200006d916200024c565b60405180604001604052806007815260200166105b9a5b4d1c9d60ca1b81525060405180604001604052806004815260200163104d149560e21b815250620000c4620000be6200013c60201b60201c565b62000140565b8151620000d990600390602085019062000190565b508051620000ef90600490602084019062000190565b5060006001555050601180546001600160a01b0319166001600160a01b038616179055600e839055600f82905580516200013190601090602084019062000190565b50505050506200039a565b3390565b600080546001600160a01b038381166001600160a01b0319831681178455604051919092169283917f8be0079c531659141344cd1fd0a4f28419497f9722a3daafe3b4186f6b6457e09190a35050565b8280546200019e906200035e565b90600052602060002090601f016020900481019282620001c257600085556200020d565b82601f10620001dd57805160ff19168380011785556200020d565b828001600101855582156200020d579182015b828111156200020d578251825591602001919060010190620001f0565b506200021b9291506200021f565b5090565b5b808211156200021b576000815560010162000220565b634e487b7160e01b600052604160045260246000fd5b600080600080608085870312156200026357600080fd5b84516001600160a01b03811681146200027b57600080fd5b602086810151604088015160608901519397509095509350906001600160401b0380821115620002aa57600080fd5b818801915088601f830112620002bf57600080fd5b815181811115620002d457620002d462000236565b604051601f8201601f19908116603f01168101908382118183101715620002ff57620002ff62000236565b816040528281528b868487010111156200031857600080fd5b600093505b828410156200033c57848401860151818501870152928501926200031d565b828411156200034e5760008684830101525b989b979a50959850505050505050565b600181811c908216806200037357607f821691505b6020821081036200039457634e487b7160e01b600052602260045260246000fd5b50919050565b6128a280620003aa6000396000f3fe60806040526004361061024a5760003560e01c806370a0823111610139578063b88d4fde116100b6578063d12397301161007a578063d1239730146106da578063e985e9c5146106f4578063f2fb0e201461073d578063f2fde38b14610750578063f3c59cb914610770578063f5aa406d1461079057600080fd5b8063b88d4fde1461062d578063becacc5b1461064d578063c68b33051461067a578063c87b56dd1461069a578063cbce4c97146106ba57600080fd5b806395d89b41116100fd57806395d89b41146105af5780639b6860c8146105c4578063a0bcfc7f146105da578063a22cb465146105fa578063ac5ae11b1461061a57600080fd5b806370a082311461050f578063715018a61461052f578063791a2519146105445780638da5cb5b146105645780639571897e1461058257600080fd5b8063386bfc98116101c757806354d736f51161018b57806354d736f5146104775780635d852ae3146104a45780636352211e146104ba57806366d003ac146104da5780636c0360eb146104fa57600080fd5b8063386bfc98146103ee57806339a855971461040457806342842e0e146104245780634b11faaf14610444578063525f8a5c1461045757600080fd5b806318160ddd1161020e57806318160ddd146103695780631cbaee2d1461038257806320bd6dba1461039857806323b872dd146103ae578063353013e7146103ce57600080fd5b806301ffc9a71461029457806304226dd0146102c957806306fdde03146102ed578063081812fc1461030f578063095ea7b31461034757600080fd5b3661028f5760405162461bcd60e51b815260206004820152601060248201526f13db9b1e481a59881e5bdd481b5a5b9d60821b60448201526064015b60405180910390fd5b600080fd5b3480156102a057600080fd5b506102b46102af3660046121c3565b6107b0565b60405190151581526020015b60405180910390f35b3480156102d557600080fd5b506102df600a5481565b6040519081526020016102c0565b3480156102f957600080fd5b50610302610802565b6040516102c0919061223f565b34801561031b57600080fd5b5061032f61032a366004612252565b610894565b6040516001600160a01b0390911681526020016102c0565b34801561035357600080fd5b50610367610362366004612287565b6108d8565b005b34801561037557600080fd5b50600254600154036102df565b34801561038e57600080fd5b506102df600d5481565b3480156103a457600080fd5b506102df600e5481565b3480156103ba57600080fd5b506103676103c93660046122b1565b610965565b3480156103da57600080fd5b506103676103e9366004612252565b610970565b3480156103fa57600080fd5b506102df600f5481565b34801561041057600080fd5b5061036761041f366004612252565b61099f565b34801561043057600080fd5b5061036761043f3660046122b1565b6109ce565b6103676104523660046122ed565b6109e9565b34801561046357600080fd5b50610367610472366004612252565b610d10565b34801561048357600080fd5b506102df610492366004612377565b60146020526000908152604090205481565b3480156104b057600080fd5b506102df600b5481565b3480156104c657600080fd5b5061032f6104d5366004612252565b610d3f565b3480156104e657600080fd5b5060115461032f906001600160a01b031681565b34801561050657600080fd5b50610302610d51565b34801561051b57600080fd5b506102df61052a366004612377565b610ddf565b34801561053b57600080fd5b50610367610e2e565b34801561055057600080fd5b5061036761055f366004612252565b610e64565b34801561057057600080fd5b506000546001600160a01b031661032f565b34801561058e57600080fd5b506102df61059d366004612377565b60126020526000908152604090205481565b3480156105bb57600080fd5b50610302610e93565b3480156105d057600080fd5b506102df600c5481565b3480156105e657600080fd5b506103676105f536600461241e565b610ea2565b34801561060657600080fd5b50610367610615366004612477565b610ee3565b610367610628366004612287565b610f78565b34801561063957600080fd5b506103676106483660046124aa565b6111a9565b34801561065957600080fd5b506102df610668366004612377565b60136020526000908152604090205481565b34801561068657600080fd5b50610367610695366004612526565b6111f4565b3480156106a657600080fd5b506103026106b5366004612252565b611231565b3480156106c657600080fd5b506103676106d5366004612287565b6112ba565b3480156106e657600080fd5b506009546102b49060ff1681565b34801561070057600080fd5b506102b461070f366004612541565b6001600160a01b03918216600090815260086020908152604080832093909416825291909152205460ff1690565b61036761074b3660046122ed565b61134c565b34801561075c57600080fd5b5061036761076b366004612377565b61165b565b34801561077c57600080fd5b5061036761078b366004612252565b6116f6565b34801561079c57600080fd5b506103676107ab366004612252565b611725565b60006001600160e01b031982166380ac58cd60e01b14806107e157506001600160e01b03198216635b5e139f60e01b145b806107fc57506301ffc9a760e01b6001600160e01b03198316145b92915050565b6060600380546108119061256b565b80601f016020809104026020016040519081016040528092919081815260200182805461083d9061256b565b801561088a5780601f1061085f5761010080835404028352916020019161088a565b820191906000526020600020905b81548152906001019060200180831161086d57829003601f168201915b5050505050905090565b600061089f82611754565b6108bc576040516333d1c03960e21b815260040160405180910390fd5b506000908152600760205260409020546001600160a01b031690565b60006108e382610d3f565b9050806001600160a01b0316836001600160a01b0316036109175760405163250fdee360e21b815260040160405180910390fd5b336001600160a01b038216148015906109375750610935813361070f565b155b15610955576040516367d9dca160e11b815260040160405180910390fd5b610960838383611780565b505050565b6109608383836117dc565b6000546001600160a01b0316331461099a5760405162461bcd60e51b8152600401610286906125a5565b600b55565b6000546001600160a01b031633146109c95760405162461bcd60e51b8152600401610286906125a5565b600e55565b610960838383604051806020016040528060008152506111a9565b60095460ff16610a0b5760405162461bcd60e51b8152600401610286906125da565b323314610a2a5760405162461bcd60e51b815260040161028690612607565b610a72600f54610a39336119cc565b848480806020026020016040519081016040528093929190818152602001838360200280828437600092019190915250611a0b92505050565b610ab05760405162461bcd60e51b815260206004820152600f60248201526e139bdd081dda1a5d195b1a5cdd1959608a1b6044820152606401610286565b600d54610ac09062054600612654565b421015610b1a5760405162461bcd60e51b815260206004820152602260248201527f57686974656c6973742073616c6520686173206e6f7420737461727465642079604482015261195d60f21b6064820152608401610286565b600d54610b2a9062069780612654565b4210610b785760405162461bcd60e51b815260206004820152601a60248201527f57686974656c6973742073616c652069732066696e69736865640000000000006044820152606401610286565b600b5480610bc85760405162461bcd60e51b815260206004820152601860248201527f57686974656c6973742073616c65206e6f7420726561647900000000000000006044820152606401610286565b610bd2848261266c565b341015610c145760405162461bcd60e51b815260206004820152601060248201526f4e6f7420656e6f7567682066756e647360801b6044820152606401610286565b336000908152601360205260409020546002610c308683612654565b1115610c955760405162461bcd60e51b815260206004820152602e60248201527f4d6178206d696e7473207065722077616c6c6574206f662057686974656c697360448201526d1d081cd85b19481c995858da195960921b6064820152608401610286565b6107d085610ca66002546001540390565b610cb09190612654565b1115610cce5760405162461bcd60e51b81526004016102869061268b565b610cd88582612654565b33600090815260136020526040902055610cf28686611a20565b601154610d08906001600160a01b031634611a3a565b505050505050565b6000546001600160a01b03163314610d3a5760405162461bcd60e51b8152600401610286906125a5565b600d55565b6000610d4a82611b53565b5192915050565b60108054610d5e9061256b565b80601f0160208091040260200160405190810160405280929190818152602001828054610d8a9061256b565b8015610dd75780601f10610dac57610100808354040283529160200191610dd7565b820191906000526020600020905b815481529060010190602001808311610dba57829003601f168201915b505050505081565b60006001600160a01b038216610e08576040516323d3ad8160e21b815260040160405180910390fd5b506001600160a01b031660009081526006602052604090205467ffffffffffffffff1690565b6000546001600160a01b03163314610e585760405162461bcd60e51b8152600401610286906125a5565b610e626000611c6f565b565b6000546001600160a01b03163314610e8e5760405162461bcd60e51b8152600401610286906125a5565b600c55565b6060600480546108119061256b565b6000546001600160a01b03163314610ecc5760405162461bcd60e51b8152600401610286906125a5565b8051610edf906010906020840190612114565b5050565b336001600160a01b03831603610f0c5760405163b06307db60e01b815260040160405180910390fd5b3360008181526008602090815260408083206001600160a01b03871680855290835292819020805460ff191686151590811790915590519081529192917f17307eab39ab6107e8899845ad3d59bd9653f200f220920489ca2b5937696c31910160405180910390a35050565b60095460ff16610f9a5760405162461bcd60e51b8152600401610286906125da565b323314610fb95760405162461bcd60e51b815260040161028690612607565b600d54610fc99062093a80612654565b4210156110185760405162461bcd60e51b815260206004820152601f60248201527f5075626c69632073616c6520686173206e6f74207374617274656420796574006044820152606401610286565b600c54806110605760405162461bcd60e51b81526020600482015260156024820152745075626c69632073616c65206e6f7420726561647960581b6044820152606401610286565b81600c5461106e919061266c565b3410156110b15760405162461bcd60e51b81526020600482015260116024820152704e6f7420656e6f756768742066756e647360781b6044820152606401610286565b3360009081526013602052604090205461012c6110ce8483612654565b11156111305760405162461bcd60e51b815260206004820152602b60248201527f4d6178206d696e7473207065722077616c6c6574206f66205075626c6963207360448201526a185b19481c995858da195960aa1b6064820152608401610286565b6126de836111416002546001540390565b61114b9190612654565b11156111695760405162461bcd60e51b81526004016102869061268b565b6111738382612654565b3360009081526014602052604090205561118d8484611a20565b6011546111a3906001600160a01b031634611a3a565b50505050565b6111b48484846117dc565b6001600160a01b0383163b151580156111d657506111d484848484611cbf565b155b156111a3576040516368d2bf6b60e11b815260040160405180910390fd5b6000546001600160a01b0316331461121e5760405162461bcd60e51b8152600401610286906125a5565b6009805460ff1916911515919091179055565b606061123c82611754565b6112885760405162461bcd60e51b815260206004820152601f60248201527f55524920717565727920666f72206e6f6e6578697374656e7420746f6b656e006044820152606401610286565b601061129383611daa565b6040516020016112a49291906126d4565b6040516020818303038152906040529050919050565b6000546001600160a01b031633146112e45760405162461bcd60e51b8152600401610286906125a5565b612710816112f56002546001540390565b6112ff9190612654565b11156113425760405162461bcd60e51b815260206004820152601260248201527152656163686564206d617820737570706c7960701b6044820152606401610286565b610edf8282611a20565b60095460ff1661136e5760405162461bcd60e51b8152600401610286906125da565b32331461138d5760405162461bcd60e51b815260040161028690612607565b61139c600e54610a39336119cc565b6113d95760405162461bcd60e51b815260206004820152600e60248201526d139bdd0819dbdb191b1a5cdd195960921b6044820152606401610286565b600d544210156114355760405162461bcd60e51b815260206004820152602160248201527f476f6c646c6973742073616c6520686173206e6f7420737461727465642079656044820152601d60fa1b6064820152608401610286565b600d546114459062015180612654565b42106114935760405162461bcd60e51b815260206004820152601960248201527f476f6c646c6973742073616c652069732066696e6973686564000000000000006044820152606401610286565b600a54806114e35760405162461bcd60e51b815260206004820152601760248201527f476f6c646c6973742073616c65206e6f742072656164790000000000000000006044820152606401610286565b6114ed848261266c565b3410156115305760405162461bcd60e51b81526020600482015260116024820152704e6f7420656e6f756768742066756e647360781b6044820152606401610286565b33600090815260126020526040902054801561158e5760405162461bcd60e51b815260206004820152601b60248201527f476f6c646c697374206d696e7420616c7265616479207370656e7400000000006044820152606401610286565b600261159a8683612654565b11156115fe5760405162461bcd60e51b815260206004820152602d60248201527f4d6178206d696e7473207065722077616c6c6574206f6620476f6c646c69737460448201526c081cd85b19481c995858da1959609a1b6064820152608401610286565b6101f48561160f6002546001540390565b6116199190612654565b11156116375760405162461bcd60e51b81526004016102869061268b565b6116418582612654565b33600090815260126020526040902055610cf28686611a20565b6000546001600160a01b031633146116855760405162461bcd60e51b8152600401610286906125a5565b6001600160a01b0381166116ea5760405162461bcd60e51b815260206004820152602660248201527f4f776e61626c653a206e6577206f776e657220697320746865207a65726f206160448201526564647265737360d01b6064820152608401610286565b6116f381611c6f565b50565b6000546001600160a01b031633146117205760405162461bcd60e51b8152600401610286906125a5565b600a55565b6000546001600160a01b0316331461174f5760405162461bcd60e51b8152600401610286906125a5565b600f55565b6000600154821080156107fc575050600090815260056020526040902054600160e01b900460ff161590565b60008281526007602052604080822080546001600160a01b0319166001600160a01b0387811691821790925591518593918516917f8c5be1e5ebec7d5bd14f71427d1e84f3dd0314c0f7b2291e5b200ac8c7c3b92591a4505050565b60006117e782611b53565b9050836001600160a01b031681600001516001600160a01b03161461181e5760405162a1148160e81b815260040160405180910390fd5b6000336001600160a01b038616148061183c575061183c853361070f565b8061185757503361184c84610894565b6001600160a01b0316145b90508061187757604051632ce44b5f60e11b815260040160405180910390fd5b6001600160a01b03841661189e57604051633a954ecd60e21b815260040160405180910390fd5b6118aa60008487611780565b6001600160a01b038581166000908152600660209081526040808320805467ffffffffffffffff1980821667ffffffffffffffff92831660001901831617909255898616808652838620805493841693831660019081018416949094179055898652600590945282852080546001600160e01b031916909417600160a01b42909216919091021783558701808452922080549193909116611980576001548214611980578054602086015167ffffffffffffffff16600160a01b026001600160e01b03199091166001600160a01b038a16171781555b50505082846001600160a01b0316866001600160a01b03167fddf252ad1be2c89b69c2b068fc378daa952ba7f163c4a11628f55a4df523b3ef60405160405180910390a45b5050505050565b6040516bffffffffffffffffffffffff19606083901b166020820152600090603401604051602081830303815290604052805190602001209050919050565b6000611a18828585611eab565b949350505050565b610edf828260405180602001604052806000815250611ec1565b80471015611a8a5760405162461bcd60e51b815260206004820152601d60248201527f416464726573733a20696e73756666696369656e742062616c616e63650000006044820152606401610286565b6000826001600160a01b03168260405160006040518083038185875af1925050503d8060008114611ad7576040519150601f19603f3d011682016040523d82523d6000602084013e611adc565b606091505b50509050806109605760405162461bcd60e51b815260206004820152603a60248201527f416464726573733a20756e61626c6520746f2073656e642076616c75652c207260448201527f6563697069656e74206d617920686176652072657665727465640000000000006064820152608401610286565b604080516060810182526000808252602082018190529181019190915281600154811015611c5657600081815260056020908152604091829020825160608101845290546001600160a01b0381168252600160a01b810467ffffffffffffffff1692820192909252600160e01b90910460ff16151591810182905290611c545780516001600160a01b031615611bea579392505050565b5060001901600081815260056020908152604091829020825160608101845290546001600160a01b038116808352600160a01b820467ffffffffffffffff1693830193909352600160e01b900460ff1615159281019290925215611c4f579392505050565b611bea565b505b604051636f96cda160e11b815260040160405180910390fd5b600080546001600160a01b038381166001600160a01b0319831681178455604051919092169283917f8be0079c531659141344cd1fd0a4f28419497f9722a3daafe3b4186f6b6457e09190a35050565b604051630a85bd0160e11b81526000906001600160a01b0385169063150b7a0290611cf490339089908890889060040161278e565b6020604051808303816000875af1925050508015611d2f575060408051601f3d908101601f19168201909252611d2c918101906127cb565b60015b611d8d573d808015611d5d576040519150601f19603f3d011682016040523d82523d6000602084013e611d62565b606091505b508051600003611d85576040516368d2bf6b60e11b815260040160405180910390fd5b805181602001fd5b6001600160e01b031916630a85bd0160e11b149050949350505050565b606081600003611dd15750506040805180820190915260018152600360fc1b602082015290565b8160005b8115611dfb5780611de5816127e8565b9150611df49050600a83612817565b9150611dd5565b60008167ffffffffffffffff811115611e1657611e16612392565b6040519080825280601f01601f191660200182016040528015611e40576020820181803683370190505b5090505b8415611a1857611e5560018361282b565b9150611e62600a86612842565b611e6d906030612654565b60f81b818381518110611e8257611e82612856565b60200101906001600160f81b031916908160001a905350611ea4600a86612817565b9450611e44565b600082611eb88584611ece565b14949350505050565b6109608383836001611f42565b600081815b8451811015611f3a576000858281518110611ef057611ef0612856565b60200260200101519050808311611f165760008381526020829052604090209250611f27565b600081815260208490526040902092505b5080611f32816127e8565b915050611ed3565b509392505050565b6001546001600160a01b038516611f6b57604051622e076360e81b815260040160405180910390fd5b83600003611f8c5760405163b562e8dd60e01b815260040160405180910390fd5b6001600160a01b038516600081815260066020908152604080832080546fffffffffffffffffffffffffffffffff19811667ffffffffffffffff8083168c0181169182176801000000000000000067ffffffffffffffff1990941690921783900481168c01811690920217909155858452600590925290912080546001600160e01b031916909217600160a01b42909216919091021790558080850183801561203e57506001600160a01b0387163b15155b156120c6575b60405182906001600160a01b038916906000907fddf252ad1be2c89b69c2b068fc378daa952ba7f163c4a11628f55a4df523b3ef908290a461208f6000888480600101955088611cbf565b6120ac576040516368d2bf6b60e11b815260040160405180910390fd5b8082036120445782600154146120c157600080fd5b61210b565b5b6040516001830192906001600160a01b038916906000907fddf252ad1be2c89b69c2b068fc378daa952ba7f163c4a11628f55a4df523b3ef908290a48082036120c7575b506001556119c5565b8280546121209061256b565b90600052602060002090601f0160209004810192826121425760008555612188565b82601f1061215b57805160ff1916838001178555612188565b82800160010185558215612188579182015b8281111561218857825182559160200191906001019061216d565b50612194929150612198565b5090565b5b808211156121945760008155600101612199565b6001600160e01b0319811681146116f357600080fd5b6000602082840312156121d557600080fd5b81356121e0816121ad565b9392505050565b60005b838110156122025781810151838201526020016121ea565b838111156111a35750506000910152565b6000815180845261222b8160208601602086016121e7565b601f01601f19169290920160200192915050565b6020815260006121e06020830184612213565b60006020828403121561226457600080fd5b5035919050565b80356001600160a01b038116811461228257600080fd5b919050565b6000806040838503121561229a57600080fd5b6122a38361226b565b946020939093013593505050565b6000806000606084860312156122c657600080fd5b6122cf8461226b565b92506122dd6020850161226b565b9150604084013590509250925092565b6000806000806060858703121561230357600080fd5b61230c8561226b565b935060208501359250604085013567ffffffffffffffff8082111561233057600080fd5b818701915087601f83011261234457600080fd5b81358181111561235357600080fd5b8860208260051b850101111561236857600080fd5b95989497505060200194505050565b60006020828403121561238957600080fd5b6121e08261226b565b634e487b7160e01b600052604160045260246000fd5b600067ffffffffffffffff808411156123c3576123c3612392565b604051601f8501601f19908116603f011681019082821181831017156123eb576123eb612392565b8160405280935085815286868601111561240457600080fd5b858560208301376000602087830101525050509392505050565b60006020828403121561243057600080fd5b813567ffffffffffffffff81111561244757600080fd5b8201601f8101841361245857600080fd5b611a18848235602084016123a8565b8035801515811461228257600080fd5b6000806040838503121561248a57600080fd5b6124938361226b565b91506124a160208401612467565b90509250929050565b600080600080608085870312156124c057600080fd5b6124c98561226b565b93506124d76020860161226b565b925060408501359150606085013567ffffffffffffffff8111156124fa57600080fd5b8501601f8101871361250b57600080fd5b61251a878235602084016123a8565b91505092959194509250565b60006020828403121561253857600080fd5b6121e082612467565b6000806040838503121561255457600080fd5b61255d8361226b565b91506124a16020840161226b565b600181811c9082168061257f57607f821691505b60208210810361259f57634e487b7160e01b600052602260045260246000fd5b50919050565b6020808252818101527f4f776e61626c653a2063616c6c6572206973206e6f7420746865206f776e6572604082015260600190565b602080825260139082015272135a5b9d081a5cc81b9bdd08195b98589b1959606a1b604082015260600190565b6020808252601e908201527f5468652063616c6c657220697320616e6f7468657220636f6e74726163740000604082015260600190565b634e487b7160e01b600052601160045260246000fd5b600082198211156126675761266761263e565b500190565b60008160001904831182151516156126865761268661263e565b500290565b60208082526013908201527213585e081cdd5c1c1b1e48195e18d959591959606a1b604082015260600190565b600081516126ca8185602086016121e7565b9290920192915050565b600080845481600182811c9150808316806126f057607f831692505b6020808410820361270f57634e487b7160e01b86526022600452602486fd5b818015612723576001811461273457612761565b60ff19861689528489019650612761565b60008b81526020902060005b868110156127595781548b820152908501908301612740565b505084890196505b50505050505061278561277482866126b8565b64173539b7b760d91b815260050190565b95945050505050565b6001600160a01b03858116825284166020820152604081018390526080606082018190526000906127c190830184612213565b9695505050505050565b6000602082840312156127dd57600080fd5b81516121e0816121ad565b6000600182016127fa576127fa61263e565b5060010190565b634e487b7160e01b600052601260045260246000fd5b60008261282657612826612801565b500490565b60008282101561283d5761283d61263e565b500390565b60008261285157612851612801565b500690565b634e487b7160e01b600052603260045260246000fdfea26469706673582212201cf59d330ff85b7443360495a42448b694f969a540fbcc84952e8598b134329264736f6c634300080d0033",
  "linkReferences": {},
  "deployedLinkReferences": {}
}