{
  "_format": "hh-sol-artifact-1",
  "contractName": "ERC721A",
  "sourceName": "contracts/Demo.sol",
  "abi": [
    {
      "inputs": [],
      "stateMutability": "nonpayable",
      "type": "constructor"
    },
    {
      "inputs": [],
      "name": "ApprovalCallerNotOwnerNorApproved",
      "type": "error"
    },
    {
      "inputs": [],
      "name": "ApprovalQueryForNonexistentToken",
      "type": "error"
    },
    {
      "inputs": [],
      "name": "ApprovalToCurrentOwner",
      "type": "error"
    },
    {
      "inputs": [],
      "name": "ApproveToCaller",
      "type": "error"
    },
    {
      "inputs": [],
      "name": "BalanceQueryForZeroAddress",
      "type": "error"
    },
    {
      "inputs": [],
      "name": "MintToZeroAddress",
      "type": "error"
    },
    {
      "inputs": [],
      "name": "MintZeroQuantity",
      "type": "error"
    },
    {
      "inputs": [],
      "name": "OwnerQueryForNonexistentToken",
      "type": "error"
    },
    {
      "inputs": [],
      "name": "TransferCallerNotOwnerNorApproved",
      "type": "error"
    },
    {
      "inputs": [],
      "name": "TransferFromIncorrectOwner",
      "type": "error"
    },
    {
      "inputs": [],
      "name": "TransferToNonERC721ReceiverImplementer",
      "type": "error"
    },
    {
      "inputs": [],
      "name": "TransferToZeroAddress",
      "type": "error"
    },
    {
      "anonymous": false,
      "inputs": [
        {
          "indexed": true,
          "internalType": "address",
          "name": "owner",
          "type": "address"
        },
        {
          "indexed": true,
          "internalType": "address",
          "name": "approved",
          "type": "address"
        },
        {
          "indexed": true,
          "internalType": "uint256",
          "name": "tokenId",
          "type": "uint256"
        }
      ],
      "name": "Approval",
      "type": "event"
    },
    {
      "anonymous": false,
      "inputs": [
        {
          "indexed": true,
          "internalType": "address",
          "name": "owner",
          "type": "address"
        },
        {
          "indexed": true,
          "internalType": "address",
          "name": "operator",
          "type": "address"
        },
        {
          "indexed": false,
          "internalType": "bool",
          "name": "approved",
          "type": "bool"
        }
      ],
      "name": "ApprovalForAll",
      "type": "event"
    },
    {
      "anonymous": false,
      "inputs": [
        {
          "indexed": true,
          "internalType": "address",
          "name": "previousOwner",
          "type": "address"
        },
        {
          "indexed": true,
          "internalType": "address",
          "name": "newOwner",
          "type": "address"
        }
      ],
      "name": "OwnershipTransferred",
      "type": "event"
    },
    {
      "anonymous": false,
      "inputs": [
        {
          "indexed": true,
          "internalType": "address",
          "name": "from",
          "type": "address"
        },
        {
          "indexed": true,
          "internalType": "address",
          "name": "to",
          "type": "address"
        },
        {
          "indexed": true,
          "internalType": "uint256",
          "name": "tokenId",
          "type": "uint256"
        }
      ],
      "name": "Transfer",
      "type": "event"
    },
    {
      "inputs": [
        {
          "internalType": "address",
          "name": "to",
          "type": "address"
        },
        {
          "internalType": "uint256",
          "name": "tokenId",
          "type": "uint256"
        }
      ],
      "name": "approve",
      "outputs": [],
      "stateMutability": "nonpayable",
      "type": "function"
    },
    {
      "inputs": [
        {
          "internalType": "address",
          "name": "owner",
          "type": "address"
        }
      ],
      "name": "balanceOf",
      "outputs": [
        {
          "internalType": "uint256",
          "name": "",
          "type": "uint256"
        }
      ],
      "stateMutability": "view",
      "type": "function"
    },
    {
      "inputs": [],
      "name": "baseURI",
      "outputs": [
        {
          "internalType": "string",
          "name": "",
          "type": "string"
        }
      ],
      "stateMutability": "view",
      "type": "function"
    },
    {
      "inputs": [
        {
          "internalType": "uint256",
          "name": "tokenId",
          "type": "uint256"
        }
      ],
      "name": "getApproved",
      "outputs": [
        {
          "internalType": "address",
          "name": "",
          "type": "address"
        }
      ],
      "stateMutability": "view",
      "type": "function"
    },
    {
      "inputs": [
        {
          "internalType": "address",
          "name": "owner",
          "type": "address"
        },
        {
          "internalType": "address",
          "name": "operator",
          "type": "address"
        }
      ],
      "name": "isApprovedForAll",
      "outputs": [
        {
          "internalType": "bool",
          "name": "",
          "type": "bool"
        }
      ],
      "stateMutability": "view",
      "type": "function"
    },
    {
      "inputs": [
        {
          "internalType": "address",
          "name": "_account",
          "type": "address"
        },
        {
          "internalType": "uint256",
          "name": "_quantity",
          "type": "uint256"
        }
      ],
      "name": "mint",
      "outputs": [],
      "stateMutability": "payable",
      "type": "function"
    },
    {
      "inputs": [],
      "name": "name",
      "outputs": [
        {
          "internalType": "string",
          "name": "",
          "type": "string"
        }
      ],
      "stateMutability": "view",
      "type": "function"
    },
    {
      "inputs": [],
      "name": "owner",
      "outputs": [
        {
          "internalType": "address",
          "name": "",
          "type": "address"
        }
      ],
      "stateMutability": "view",
      "type": "function"
    },
    {
      "inputs": [
        {
          "internalType": "uint256",
          "name": "tokenId",
          "type": "uint256"
        }
      ],
      "name": "ownerOf",
      "outputs": [
        {
          "internalType": "address",
          "name": "",
          "type": "address"
        }
      ],
      "stateMutability": "view",
      "type": "function"
    },
    {
      "inputs": [],
      "name": "renounceOwnership",
      "outputs": [],
      "stateMutability": "nonpayable",
      "type": "function"
    },
    {
      "inputs": [
        {
          "internalType": "address",
          "name": "from",
          "type": "address"
        },
        {
          "internalType": "address",
          "name": "to",
          "type": "address"
        },
        {
          "internalType": "uint256",
          "name": "tokenId",
          "type": "uint256"
        }
      ],
      "name": "safeTransferFrom",
      "outputs": [],
      "stateMutability": "nonpayable",
      "type": "function"
    },
    {
      "inputs": [
        {
          "internalType": "address",
          "name": "from",
          "type": "address"
        },
        {
          "internalType": "address",
          "name": "to",
          "type": "address"
        },
        {
          "internalType": "uint256",
          "name": "tokenId",
          "type": "uint256"
        },
        {
          "internalType": "bytes",
          "name": "_data",
          "type": "bytes"
        }
      ],
      "name": "safeTransferFrom",
      "outputs": [],
      "stateMutability": "nonpayable",
      "type": "function"
    },
    {
      "inputs": [
        {
          "internalType": "address",
          "name": "operator",
          "type": "address"
        },
        {
          "internalType": "bool",
          "name": "approved",
          "type": "bool"
        }
      ],
      "name": "setApprovalForAll",
      "outputs": [],
      "stateMutability": "nonpayable",
      "type": "function"
    },
    {
      "inputs": [
        {
          "internalType": "string",
          "name": "_baseURI",
          "type": "string"
        }
      ],
      "name": "setBaseUri",
      "outputs": [],
      "stateMutability": "nonpayable",
      "type": "function"
    },
    {
      "inputs": [
        {
          "internalType": "bytes4",
          "name": "interfaceId",
          "type": "bytes4"
        }
      ],
      "name": "supportsInterface",
      "outputs": [
        {
          "internalType": "bool",
          "name": "",
          "type": "bool"
        }
      ],
      "stateMutability": "view",
      "type": "function"
    },
    {
      "inputs": [],
      "name": "symbol",
      "outputs": [
        {
          "internalType": "string",
          "name": "",
          "type": "string"
        }
      ],
      "stateMutability": "view",
      "type": "function"
    },
    {
      "inputs": [
        {
          "internalType": "uint256",
          "name": "_tokenId",
          "type": "uint256"
        }
      ],
      "name": "tokenURI",
      "outputs": [
        {
          "internalType": "string",
          "name": "",
          "type": "string"
        }
      ],
      "stateMutability": "view",
      "type": "function"
    },
    {
      "inputs": [],
      "name": "totalSupply",
      "outputs": [
        {
          "internalType": "uint256",
          "name": "",
          "type": "uint256"
        }
      ],
      "stateMutability": "view",
      "type": "function"
    },
    {
      "inputs": [
        {
          "internalType": "address",
          "name": "from",
          "type": "address"
        },
        {
          "internalType": "address",
          "name": "to",
          "type": "address"
        },
        {
          "internalType": "uint256",
          "name": "tokenId",
          "type": "uint256"
        }
      ],
      "name": "transferFrom",
      "outputs": [],
      "stateMutability": "nonpayable",
      "type": "function"
    },
    {
      "inputs": [
        {
          "internalType": "address",
          "name": "newOwner",
          "type": "address"
        }
      ],
      "name": "transferOwnership",
      "outputs": [],
      "stateMutability": "nonpayable",
      "type": "function"
    }
  ],
  "bytecode": "0x60806040523480156200001157600080fd5b5060405180604001604052806007815260200166105b9a5b4d1c9d60ca1b815250604051806040016040528060038152602001620d149560ea1b8152506200006862000062620000a160201b60201c565b620000a5565b81516200007d906003906020850190620000f5565b50805162000093906004906020840190620000f5565b5050600060015550620001d7565b3390565b600080546001600160a01b038381166001600160a01b0319831681178455604051919092169283917f8be0079c531659141344cd1fd0a4f28419497f9722a3daafe3b4186f6b6457e09190a35050565b82805462000103906200019b565b90600052602060002090601f01602090048101928262000127576000855562000172565b82601f106200014257805160ff191683800117855562000172565b8280016001018555821562000172579182015b828111156200017257825182559160200191906001019062000155565b506200018092915062000184565b5090565b5b8082111562000180576000815560010162000185565b600181811c90821680620001b057607f821691505b602082108103620001d157634e487b7160e01b600052602260045260246000fd5b50919050565b61173d80620001e76000396000f3fe60806040526004361061011f5760003560e01c806370a08231116100a0578063a22cb46511610064578063a22cb46514610308578063b88d4fde14610328578063c87b56dd14610348578063e985e9c514610368578063f2fde38b146103b157600080fd5b806370a0823114610280578063715018a6146102a05780638da5cb5b146102b557806395d89b41146102d3578063a0bcfc7f146102e857600080fd5b806323b872dd116100e757806323b872dd146101f857806340c10f191461021857806342842e0e1461022b5780636352211e1461024b5780636c0360eb1461026b57600080fd5b806301ffc9a71461012457806306fdde0314610159578063081812fc1461017b578063095ea7b3146101b357806318160ddd146101d5575b600080fd5b34801561013057600080fd5b5061014461013f3660046111b1565b6103d1565b60405190151581526020015b60405180910390f35b34801561016557600080fd5b5061016e610423565b604051610150919061122d565b34801561018757600080fd5b5061019b610196366004611240565b6104b5565b6040516001600160a01b039091168152602001610150565b3480156101bf57600080fd5b506101d36101ce366004611275565b6104f9565b005b3480156101e157600080fd5b50600254600154035b604051908152602001610150565b34801561020457600080fd5b506101d361021336600461129f565b610586565b6101d3610226366004611275565b610591565b34801561023757600080fd5b506101d361024636600461129f565b61059f565b34801561025757600080fd5b5061019b610266366004611240565b6105ba565b34801561027757600080fd5b5061016e6105cc565b34801561028c57600080fd5b506101ea61029b3660046112db565b61065a565b3480156102ac57600080fd5b506101d36106a9565b3480156102c157600080fd5b506000546001600160a01b031661019b565b3480156102df57600080fd5b5061016e6106e8565b3480156102f457600080fd5b506101d3610303366004611382565b6106f7565b34801561031457600080fd5b506101d36103233660046113cb565b610734565b34801561033457600080fd5b506101d3610343366004611407565b6107c9565b34801561035457600080fd5b5061016e610363366004611240565b61081a565b34801561037457600080fd5b50610144610383366004611483565b6001600160a01b03918216600090815260086020908152604080832093909416825291909152205460ff1690565b3480156103bd57600080fd5b506101d36103cc3660046112db565b6108a3565b60006001600160e01b031982166380ac58cd60e01b148061040257506001600160e01b03198216635b5e139f60e01b145b8061041d57506301ffc9a760e01b6001600160e01b03198316145b92915050565b606060038054610432906114b6565b80601f016020809104026020016040519081016040528092919081815260200182805461045e906114b6565b80156104ab5780601f10610480576101008083540402835291602001916104ab565b820191906000526020600020905b81548152906001019060200180831161048e57829003601f168201915b5050505050905090565b60006104c08261093e565b6104dd576040516333d1c03960e21b815260040160405180910390fd5b506000908152600760205260409020546001600160a01b031690565b6000610504826105ba565b9050806001600160a01b0316836001600160a01b0316036105385760405163250fdee360e21b815260040160405180910390fd5b336001600160a01b0382161480159061055857506105568133610383565b155b15610576576040516367d9dca160e11b815260040160405180910390fd5b61058183838361096a565b505050565b6105818383836109c6565b61059b8282610bb6565b5050565b610581838383604051806020016040528060008152506107c9565b60006105c582610bd0565b5192915050565b600980546105d9906114b6565b80601f0160208091040260200160405190810160405280929190818152602001828054610605906114b6565b80156106525780601f1061062757610100808354040283529160200191610652565b820191906000526020600020905b81548152906001019060200180831161063557829003601f168201915b505050505081565b60006001600160a01b038216610683576040516323d3ad8160e21b815260040160405180910390fd5b506001600160a01b031660009081526006602052604090205467ffffffffffffffff1690565b6000546001600160a01b031633146106dc5760405162461bcd60e51b81526004016106d3906114f0565b60405180910390fd5b6106e66000610cec565b565b606060048054610432906114b6565b6000546001600160a01b031633146107215760405162461bcd60e51b81526004016106d3906114f0565b805161059b906009906020840190611102565b336001600160a01b0383160361075d5760405163b06307db60e01b815260040160405180910390fd5b3360008181526008602090815260408083206001600160a01b03871680855290835292819020805460ff191686151590811790915590519081529192917f17307eab39ab6107e8899845ad3d59bd9653f200f220920489ca2b5937696c31910160405180910390a35050565b6107d48484846109c6565b6001600160a01b0383163b151580156107f657506107f484848484610d3c565b155b15610814576040516368d2bf6b60e11b815260040160405180910390fd5b50505050565b60606108258261093e565b6108715760405162461bcd60e51b815260206004820152601f60248201527f55524920717565727920666f72206e6f6e6578697374656e7420746f6b656e0060448201526064016106d3565b600961087c83610e28565b60405160200161088d929190611541565b6040516020818303038152906040529050919050565b6000546001600160a01b031633146108cd5760405162461bcd60e51b81526004016106d3906114f0565b6001600160a01b0381166109325760405162461bcd60e51b815260206004820152602660248201527f4f776e61626c653a206e6577206f776e657220697320746865207a65726f206160448201526564647265737360d01b60648201526084016106d3565b61093b81610cec565b50565b60006001548210801561041d575050600090815260056020526040902054600160e01b900460ff161590565b60008281526007602052604080822080546001600160a01b0319166001600160a01b0387811691821790925591518593918516917f8c5be1e5ebec7d5bd14f71427d1e84f3dd0314c0f7b2291e5b200ac8c7c3b92591a4505050565b60006109d182610bd0565b9050836001600160a01b031681600001516001600160a01b031614610a085760405162a1148160e81b815260040160405180910390fd5b6000336001600160a01b0386161480610a265750610a268533610383565b80610a41575033610a36846104b5565b6001600160a01b0316145b905080610a6157604051632ce44b5f60e11b815260040160405180910390fd5b6001600160a01b038416610a8857604051633a954ecd60e21b815260040160405180910390fd5b610a946000848761096a565b6001600160a01b038581166000908152600660209081526040808320805467ffffffffffffffff1980821667ffffffffffffffff92831660001901831617909255898616808652838620805493841693831660019081018416949094179055898652600590945282852080546001600160e01b031916909417600160a01b42909216919091021783558701808452922080549193909116610b6a576001548214610b6a578054602086015167ffffffffffffffff16600160a01b026001600160e01b03199091166001600160a01b038a16171781555b50505082846001600160a01b0316866001600160a01b03167fddf252ad1be2c89b69c2b068fc378daa952ba7f163c4a11628f55a4df523b3ef60405160405180910390a45b5050505050565b61059b828260405180602001604052806000815250610f29565b604080516060810182526000808252602082018190529181019190915281600154811015610cd357600081815260056020908152604091829020825160608101845290546001600160a01b0381168252600160a01b810467ffffffffffffffff1692820192909252600160e01b90910460ff16151591810182905290610cd15780516001600160a01b031615610c67579392505050565b5060001901600081815260056020908152604091829020825160608101845290546001600160a01b038116808352600160a01b820467ffffffffffffffff1693830193909352600160e01b900460ff1615159281019290925215610ccc579392505050565b610c67565b505b604051636f96cda160e11b815260040160405180910390fd5b600080546001600160a01b038381166001600160a01b0319831681178455604051919092169283917f8be0079c531659141344cd1fd0a4f28419497f9722a3daafe3b4186f6b6457e09190a35050565b604051630a85bd0160e11b81526000906001600160a01b0385169063150b7a0290610d719033908990889088906004016115fb565b6020604051808303816000875af1925050508015610dac575060408051601f3d908101601f19168201909252610da991810190611638565b60015b610e0a573d808015610dda576040519150601f19603f3d011682016040523d82523d6000602084013e610ddf565b606091505b508051600003610e02576040516368d2bf6b60e11b815260040160405180910390fd5b805181602001fd5b6001600160e01b031916630a85bd0160e11b1490505b949350505050565b606081600003610e4f5750506040805180820190915260018152600360fc1b602082015290565b8160005b8115610e795780610e638161166b565b9150610e729050600a8361169a565b9150610e53565b60008167ffffffffffffffff811115610e9457610e946112f6565b6040519080825280601f01601f191660200182016040528015610ebe576020820181803683370190505b5090505b8415610e2057610ed36001836116ae565b9150610ee0600a866116c5565b610eeb9060306116d9565b60f81b818381518110610f0057610f006116f1565b60200101906001600160f81b031916908160001a905350610f22600a8661169a565b9450610ec2565b610581838383600180546001600160a01b038516610f5957604051622e076360e81b815260040160405180910390fd5b83600003610f7a5760405163b562e8dd60e01b815260040160405180910390fd5b6001600160a01b038516600081815260066020908152604080832080546fffffffffffffffffffffffffffffffff19811667ffffffffffffffff8083168c0181169182176801000000000000000067ffffffffffffffff1990941690921783900481168c01811690920217909155858452600590925290912080546001600160e01b031916909217600160a01b42909216919091021790558080850183801561102c57506001600160a01b0387163b15155b156110b4575b60405182906001600160a01b038916906000907fddf252ad1be2c89b69c2b068fc378daa952ba7f163c4a11628f55a4df523b3ef908290a461107d6000888480600101955088610d3c565b61109a576040516368d2bf6b60e11b815260040160405180910390fd5b8082036110325782600154146110af57600080fd5b6110f9565b5b6040516001830192906001600160a01b038916906000907fddf252ad1be2c89b69c2b068fc378daa952ba7f163c4a11628f55a4df523b3ef908290a48082036110b5575b50600155610baf565b82805461110e906114b6565b90600052602060002090601f0160209004810192826111305760008555611176565b82601f1061114957805160ff1916838001178555611176565b82800160010185558215611176579182015b8281111561117657825182559160200191906001019061115b565b50611182929150611186565b5090565b5b808211156111825760008155600101611187565b6001600160e01b03198116811461093b57600080fd5b6000602082840312156111c357600080fd5b81356111ce8161119b565b9392505050565b60005b838110156111f05781810151838201526020016111d8565b838111156108145750506000910152565b600081518084526112198160208601602086016111d5565b601f01601f19169290920160200192915050565b6020815260006111ce6020830184611201565b60006020828403121561125257600080fd5b5035919050565b80356001600160a01b038116811461127057600080fd5b919050565b6000806040838503121561128857600080fd5b61129183611259565b946020939093013593505050565b6000806000606084860312156112b457600080fd5b6112bd84611259565b92506112cb60208501611259565b9150604084013590509250925092565b6000602082840312156112ed57600080fd5b6111ce82611259565b634e487b7160e01b600052604160045260246000fd5b600067ffffffffffffffff80841115611327576113276112f6565b604051601f8501601f19908116603f0116810190828211818310171561134f5761134f6112f6565b8160405280935085815286868601111561136857600080fd5b858560208301376000602087830101525050509392505050565b60006020828403121561139457600080fd5b813567ffffffffffffffff8111156113ab57600080fd5b8201601f810184136113bc57600080fd5b610e208482356020840161130c565b600080604083850312156113de57600080fd5b6113e783611259565b9150602083013580151581146113fc57600080fd5b809150509250929050565b6000806000806080858703121561141d57600080fd5b61142685611259565b935061143460208601611259565b925060408501359150606085013567ffffffffffffffff81111561145757600080fd5b8501601f8101871361146857600080fd5b6114778782356020840161130c565b91505092959194509250565b6000806040838503121561149657600080fd5b61149f83611259565b91506114ad60208401611259565b90509250929050565b600181811c908216806114ca57607f821691505b6020821081036114ea57634e487b7160e01b600052602260045260246000fd5b50919050565b6020808252818101527f4f776e61626c653a2063616c6c6572206973206e6f7420746865206f776e6572604082015260600190565b600081516115378185602086016111d5565b9290920192915050565b600080845481600182811c91508083168061155d57607f831692505b6020808410820361157c57634e487b7160e01b86526022600452602486fd5b81801561159057600181146115a1576115ce565b60ff198616895284890196506115ce565b60008b81526020902060005b868110156115c65781548b8201529085019083016115ad565b505084890196505b5050505050506115f26115e18286611525565b64173539b7b760d91b815260050190565b95945050505050565b6001600160a01b038581168252841660208201526040810183905260806060820181905260009061162e90830184611201565b9695505050505050565b60006020828403121561164a57600080fd5b81516111ce8161119b565b634e487b7160e01b600052601160045260246000fd5b60006001820161167d5761167d611655565b5060010190565b634e487b7160e01b600052601260045260246000fd5b6000826116a9576116a9611684565b500490565b6000828210156116c0576116c0611655565b500390565b6000826116d4576116d4611684565b500690565b600082198211156116ec576116ec611655565b500190565b634e487b7160e01b600052603260045260246000fdfea26469706673582212200990cc8d017126dcf5f0043ff92d96afd241b52c8bd450405c6ec36c1bb4473664736f6c634300080d0033",
  "linkReferences": {},
  "deployedLinkReferences": {}
}