{
  "_format": "hh-sol-artifact-1",
  "contractName": "ERC721A",
  "sourceName": "contracts/ERC721A.sol",
  "abi": [
    {
      "inputs": [],
      "stateMutability": "nonpayable",
      "type": "constructor"
    },
    {
      "inputs": [],
      "name": "ApprovalCallerNotOwnerNorApproved",
      "type": "error"
    },
    {
      "inputs": [],
      "name": "ApprovalQueryForNonexistentToken",
      "type": "error"
    },
    {
      "inputs": [],
      "name": "ApprovalToCurrentOwner",
      "type": "error"
    },
    {
      "inputs": [],
      "name": "ApproveToCaller",
      "type": "error"
    },
    {
      "inputs": [],
      "name": "BalanceQueryForZeroAddress",
      "type": "error"
    },
    {
      "inputs": [],
      "name": "MintToZeroAddress",
      "type": "error"
    },
    {
      "inputs": [],
      "name": "MintZeroQuantity",
      "type": "error"
    },
    {
      "inputs": [],
      "name": "OwnerQueryForNonexistentToken",
      "type": "error"
    },
    {
      "inputs": [],
      "name": "TransferCallerNotOwnerNorApproved",
      "type": "error"
    },
    {
      "inputs": [],
      "name": "TransferFromIncorrectOwner",
      "type": "error"
    },
    {
      "inputs": [],
      "name": "TransferToNonERC721ReceiverImplementer",
      "type": "error"
    },
    {
      "inputs": [],
      "name": "TransferToZeroAddress",
      "type": "error"
    },
    {
      "anonymous": false,
      "inputs": [
        {
          "indexed": true,
          "internalType": "address",
          "name": "owner",
          "type": "address"
        },
        {
          "indexed": true,
          "internalType": "address",
          "name": "approved",
          "type": "address"
        },
        {
          "indexed": true,
          "internalType": "uint256",
          "name": "tokenId",
          "type": "uint256"
        }
      ],
      "name": "Approval",
      "type": "event"
    },
    {
      "anonymous": false,
      "inputs": [
        {
          "indexed": true,
          "internalType": "address",
          "name": "owner",
          "type": "address"
        },
        {
          "indexed": true,
          "internalType": "address",
          "name": "operator",
          "type": "address"
        },
        {
          "indexed": false,
          "internalType": "bool",
          "name": "approved",
          "type": "bool"
        }
      ],
      "name": "ApprovalForAll",
      "type": "event"
    },
    {
      "anonymous": false,
      "inputs": [
        {
          "indexed": true,
          "internalType": "address",
          "name": "previousOwner",
          "type": "address"
        },
        {
          "indexed": true,
          "internalType": "address",
          "name": "newOwner",
          "type": "address"
        }
      ],
      "name": "OwnershipTransferred",
      "type": "event"
    },
    {
      "anonymous": false,
      "inputs": [
        {
          "indexed": true,
          "internalType": "address",
          "name": "from",
          "type": "address"
        },
        {
          "indexed": true,
          "internalType": "address",
          "name": "to",
          "type": "address"
        },
        {
          "indexed": true,
          "internalType": "uint256",
          "name": "tokenId",
          "type": "uint256"
        }
      ],
      "name": "Transfer",
      "type": "event"
    },
    {
      "inputs": [
        {
          "internalType": "address",
          "name": "to",
          "type": "address"
        },
        {
          "internalType": "uint256",
          "name": "tokenId",
          "type": "uint256"
        }
      ],
      "name": "approve",
      "outputs": [],
      "stateMutability": "nonpayable",
      "type": "function"
    },
    {
      "inputs": [
        {
          "internalType": "address",
          "name": "owner",
          "type": "address"
        }
      ],
      "name": "balanceOf",
      "outputs": [
        {
          "internalType": "uint256",
          "name": "",
          "type": "uint256"
        }
      ],
      "stateMutability": "view",
      "type": "function"
    },
    {
      "inputs": [],
      "name": "baseURI",
      "outputs": [
        {
          "internalType": "string",
          "name": "",
          "type": "string"
        }
      ],
      "stateMutability": "view",
      "type": "function"
    },
    {
      "inputs": [
        {
          "internalType": "uint256",
          "name": "tokenId",
          "type": "uint256"
        }
      ],
      "name": "getApproved",
      "outputs": [
        {
          "internalType": "address",
          "name": "",
          "type": "address"
        }
      ],
      "stateMutability": "view",
      "type": "function"
    },
    {
      "inputs": [
        {
          "internalType": "address",
          "name": "owner",
          "type": "address"
        },
        {
          "internalType": "address",
          "name": "operator",
          "type": "address"
        }
      ],
      "name": "isApprovedForAll",
      "outputs": [
        {
          "internalType": "bool",
          "name": "",
          "type": "bool"
        }
      ],
      "stateMutability": "view",
      "type": "function"
    },
    {
      "inputs": [
        {
          "internalType": "address",
          "name": "_account",
          "type": "address"
        },
        {
          "internalType": "uint256",
          "name": "_quantity",
          "type": "uint256"
        }
      ],
      "name": "mint",
      "outputs": [],
      "stateMutability": "nonpayable",
      "type": "function"
    },
    {
      "inputs": [],
      "name": "name",
      "outputs": [
        {
          "internalType": "string",
          "name": "",
          "type": "string"
        }
      ],
      "stateMutability": "view",
      "type": "function"
    },
    {
      "inputs": [],
      "name": "owner",
      "outputs": [
        {
          "internalType": "address",
          "name": "",
          "type": "address"
        }
      ],
      "stateMutability": "view",
      "type": "function"
    },
    {
      "inputs": [
        {
          "internalType": "uint256",
          "name": "tokenId",
          "type": "uint256"
        }
      ],
      "name": "ownerOf",
      "outputs": [
        {
          "internalType": "address",
          "name": "",
          "type": "address"
        }
      ],
      "stateMutability": "view",
      "type": "function"
    },
    {
      "inputs": [],
      "name": "renounceOwnership",
      "outputs": [],
      "stateMutability": "nonpayable",
      "type": "function"
    },
    {
      "inputs": [
        {
          "internalType": "address",
          "name": "from",
          "type": "address"
        },
        {
          "internalType": "address",
          "name": "to",
          "type": "address"
        },
        {
          "internalType": "uint256",
          "name": "tokenId",
          "type": "uint256"
        }
      ],
      "name": "safeTransferFrom",
      "outputs": [],
      "stateMutability": "nonpayable",
      "type": "function"
    },
    {
      "inputs": [
        {
          "internalType": "address",
          "name": "from",
          "type": "address"
        },
        {
          "internalType": "address",
          "name": "to",
          "type": "address"
        },
        {
          "internalType": "uint256",
          "name": "tokenId",
          "type": "uint256"
        },
        {
          "internalType": "bytes",
          "name": "_data",
          "type": "bytes"
        }
      ],
      "name": "safeTransferFrom",
      "outputs": [],
      "stateMutability": "nonpayable",
      "type": "function"
    },
    {
      "inputs": [
        {
          "internalType": "address",
          "name": "operator",
          "type": "address"
        },
        {
          "internalType": "bool",
          "name": "approved",
          "type": "bool"
        }
      ],
      "name": "setApprovalForAll",
      "outputs": [],
      "stateMutability": "nonpayable",
      "type": "function"
    },
    {
      "inputs": [
        {
          "internalType": "string",
          "name": "_baseURI",
          "type": "string"
        }
      ],
      "name": "setBaseUri",
      "outputs": [],
      "stateMutability": "nonpayable",
      "type": "function"
    },
    {
      "inputs": [
        {
          "internalType": "bytes4",
          "name": "interfaceId",
          "type": "bytes4"
        }
      ],
      "name": "supportsInterface",
      "outputs": [
        {
          "internalType": "bool",
          "name": "",
          "type": "bool"
        }
      ],
      "stateMutability": "view",
      "type": "function"
    },
    {
      "inputs": [],
      "name": "symbol",
      "outputs": [
        {
          "internalType": "string",
          "name": "",
          "type": "string"
        }
      ],
      "stateMutability": "view",
      "type": "function"
    },
    {
      "inputs": [
        {
          "internalType": "uint256",
          "name": "_tokenId",
          "type": "uint256"
        }
      ],
      "name": "tokenURI",
      "outputs": [
        {
          "internalType": "string",
          "name": "",
          "type": "string"
        }
      ],
      "stateMutability": "view",
      "type": "function"
    },
    {
      "inputs": [],
      "name": "totalSupply",
      "outputs": [
        {
          "internalType": "uint256",
          "name": "",
          "type": "uint256"
        }
      ],
      "stateMutability": "view",
      "type": "function"
    },
    {
      "inputs": [
        {
          "internalType": "address",
          "name": "from",
          "type": "address"
        },
        {
          "internalType": "address",
          "name": "to",
          "type": "address"
        },
        {
          "internalType": "uint256",
          "name": "tokenId",
          "type": "uint256"
        }
      ],
      "name": "transferFrom",
      "outputs": [],
      "stateMutability": "nonpayable",
      "type": "function"
    },
    {
      "inputs": [
        {
          "internalType": "address",
          "name": "newOwner",
          "type": "address"
        }
      ],
      "name": "transferOwnership",
      "outputs": [],
      "stateMutability": "nonpayable",
      "type": "function"
    }
  ],
  "bytecode": "0x60806040523480156200001157600080fd5b5060405180604001604052806007815260200166105b9a5b4d1c9d60ca1b815250604051806040016040528060038152602001620d149560ea1b8152506200006862000062620000a160201b60201c565b620000a5565b81516200007d906003906020850190620000f5565b50805162000093906004906020840190620000f5565b5050600060015550620001d7565b3390565b600080546001600160a01b038381166001600160a01b0319831681178455604051919092169283917f8be0079c531659141344cd1fd0a4f28419497f9722a3daafe3b4186f6b6457e09190a35050565b82805462000103906200019b565b90600052602060002090601f01602090048101928262000127576000855562000172565b82601f106200014257805160ff191683800117855562000172565b8280016001018555821562000172579182015b828111156200017257825182559160200191906001019062000155565b506200018092915062000184565b5090565b5b8082111562000180576000815560010162000185565b600181811c90821680620001b057607f821691505b602082108103620001d157634e487b7160e01b600052602260045260246000fd5b50919050565b61165380620001e76000396000f3fe608060405234801561001057600080fd5b506004361061012c5760003560e01c806370a08231116100ad578063a22cb46511610071578063a22cb4651461025f578063b88d4fde14610272578063c87b56dd14610285578063e985e9c514610298578063f2fde38b146102d457600080fd5b806370a0823114610218578063715018a61461022b5780638da5cb5b1461023357806395d89b4114610244578063a0bcfc7f1461024c57600080fd5b806323b872dd116100f457806323b872dd146101c457806340c10f19146101d757806342842e0e146101ea5780636352211e146101fd5780636c0360eb1461021057600080fd5b806301ffc9a71461013157806306fdde0314610159578063081812fc1461016e578063095ea7b31461019957806318160ddd146101ae575b600080fd5b61014461013f3660046110c7565b6102e7565b60405190151581526020015b60405180910390f35b610161610339565b6040516101509190611143565b61018161017c366004611156565b6103cb565b6040516001600160a01b039091168152602001610150565b6101ac6101a736600461118b565b61040f565b005b600254600154035b604051908152602001610150565b6101ac6101d23660046111b5565b61049c565b6101ac6101e536600461118b565b6104a7565b6101ac6101f83660046111b5565b6104b5565b61018161020b366004611156565b6104d0565b6101616104e2565b6101b66102263660046111f1565b610570565b6101ac6105bf565b6000546001600160a01b0316610181565b6101616105fe565b6101ac61025a366004611298565b61060d565b6101ac61026d3660046112e1565b61064a565b6101ac61028036600461131d565b6106df565b610161610293366004611156565b610730565b6101446102a6366004611399565b6001600160a01b03918216600090815260086020908152604080832093909416825291909152205460ff1690565b6101ac6102e23660046111f1565b6107b9565b60006001600160e01b031982166380ac58cd60e01b148061031857506001600160e01b03198216635b5e139f60e01b145b8061033357506301ffc9a760e01b6001600160e01b03198316145b92915050565b606060038054610348906113cc565b80601f0160208091040260200160405190810160405280929190818152602001828054610374906113cc565b80156103c15780601f10610396576101008083540402835291602001916103c1565b820191906000526020600020905b8154815290600101906020018083116103a457829003601f168201915b5050505050905090565b60006103d682610854565b6103f3576040516333d1c03960e21b815260040160405180910390fd5b506000908152600760205260409020546001600160a01b031690565b600061041a826104d0565b9050806001600160a01b0316836001600160a01b03160361044e5760405163250fdee360e21b815260040160405180910390fd5b336001600160a01b0382161480159061046e575061046c81336102a6565b155b1561048c576040516367d9dca160e11b815260040160405180910390fd5b610497838383610880565b505050565b6104978383836108dc565b6104b18282610acc565b5050565b610497838383604051806020016040528060008152506106df565b60006104db82610ae6565b5192915050565b600980546104ef906113cc565b80601f016020809104026020016040519081016040528092919081815260200182805461051b906113cc565b80156105685780601f1061053d57610100808354040283529160200191610568565b820191906000526020600020905b81548152906001019060200180831161054b57829003601f168201915b505050505081565b60006001600160a01b038216610599576040516323d3ad8160e21b815260040160405180910390fd5b506001600160a01b031660009081526006602052604090205467ffffffffffffffff1690565b6000546001600160a01b031633146105f25760405162461bcd60e51b81526004016105e990611406565b60405180910390fd5b6105fc6000610c02565b565b606060048054610348906113cc565b6000546001600160a01b031633146106375760405162461bcd60e51b81526004016105e990611406565b80516104b1906009906020840190611018565b336001600160a01b038316036106735760405163b06307db60e01b815260040160405180910390fd5b3360008181526008602090815260408083206001600160a01b03871680855290835292819020805460ff191686151590811790915590519081529192917f17307eab39ab6107e8899845ad3d59bd9653f200f220920489ca2b5937696c31910160405180910390a35050565b6106ea8484846108dc565b6001600160a01b0383163b1515801561070c575061070a84848484610c52565b155b1561072a576040516368d2bf6b60e11b815260040160405180910390fd5b50505050565b606061073b82610854565b6107875760405162461bcd60e51b815260206004820152601f60248201527f55524920717565727920666f72206e6f6e6578697374656e7420746f6b656e0060448201526064016105e9565b600961079283610d3e565b6040516020016107a3929190611457565b6040516020818303038152906040529050919050565b6000546001600160a01b031633146107e35760405162461bcd60e51b81526004016105e990611406565b6001600160a01b0381166108485760405162461bcd60e51b815260206004820152602660248201527f4f776e61626c653a206e6577206f776e657220697320746865207a65726f206160448201526564647265737360d01b60648201526084016105e9565b61085181610c02565b50565b600060015482108015610333575050600090815260056020526040902054600160e01b900460ff161590565b60008281526007602052604080822080546001600160a01b0319166001600160a01b0387811691821790925591518593918516917f8c5be1e5ebec7d5bd14f71427d1e84f3dd0314c0f7b2291e5b200ac8c7c3b92591a4505050565b60006108e782610ae6565b9050836001600160a01b031681600001516001600160a01b03161461091e5760405162a1148160e81b815260040160405180910390fd5b6000336001600160a01b038616148061093c575061093c85336102a6565b8061095757503361094c846103cb565b6001600160a01b0316145b90508061097757604051632ce44b5f60e11b815260040160405180910390fd5b6001600160a01b03841661099e57604051633a954ecd60e21b815260040160405180910390fd5b6109aa60008487610880565b6001600160a01b038581166000908152600660209081526040808320805467ffffffffffffffff1980821667ffffffffffffffff92831660001901831617909255898616808652838620805493841693831660019081018416949094179055898652600590945282852080546001600160e01b031916909417600160a01b42909216919091021783558701808452922080549193909116610a80576001548214610a80578054602086015167ffffffffffffffff16600160a01b026001600160e01b03199091166001600160a01b038a16171781555b50505082846001600160a01b0316866001600160a01b03167fddf252ad1be2c89b69c2b068fc378daa952ba7f163c4a11628f55a4df523b3ef60405160405180910390a45b5050505050565b6104b1828260405180602001604052806000815250610e3f565b604080516060810182526000808252602082018190529181019190915281600154811015610be957600081815260056020908152604091829020825160608101845290546001600160a01b0381168252600160a01b810467ffffffffffffffff1692820192909252600160e01b90910460ff16151591810182905290610be75780516001600160a01b031615610b7d579392505050565b5060001901600081815260056020908152604091829020825160608101845290546001600160a01b038116808352600160a01b820467ffffffffffffffff1693830193909352600160e01b900460ff1615159281019290925215610be2579392505050565b610b7d565b505b604051636f96cda160e11b815260040160405180910390fd5b600080546001600160a01b038381166001600160a01b0319831681178455604051919092169283917f8be0079c531659141344cd1fd0a4f28419497f9722a3daafe3b4186f6b6457e09190a35050565b604051630a85bd0160e11b81526000906001600160a01b0385169063150b7a0290610c87903390899088908890600401611511565b6020604051808303816000875af1925050508015610cc2575060408051601f3d908101601f19168201909252610cbf9181019061154e565b60015b610d20573d808015610cf0576040519150601f19603f3d011682016040523d82523d6000602084013e610cf5565b606091505b508051600003610d18576040516368d2bf6b60e11b815260040160405180910390fd5b805181602001fd5b6001600160e01b031916630a85bd0160e11b1490505b949350505050565b606081600003610d655750506040805180820190915260018152600360fc1b602082015290565b8160005b8115610d8f5780610d7981611581565b9150610d889050600a836115b0565b9150610d69565b60008167ffffffffffffffff811115610daa57610daa61120c565b6040519080825280601f01601f191660200182016040528015610dd4576020820181803683370190505b5090505b8415610d3657610de96001836115c4565b9150610df6600a866115db565b610e019060306115ef565b60f81b818381518110610e1657610e16611607565b60200101906001600160f81b031916908160001a905350610e38600a866115b0565b9450610dd8565b610497838383600180546001600160a01b038516610e6f57604051622e076360e81b815260040160405180910390fd5b83600003610e905760405163b562e8dd60e01b815260040160405180910390fd5b6001600160a01b038516600081815260066020908152604080832080546fffffffffffffffffffffffffffffffff19811667ffffffffffffffff8083168c0181169182176801000000000000000067ffffffffffffffff1990941690921783900481168c01811690920217909155858452600590925290912080546001600160e01b031916909217600160a01b429092169190910217905580808501838015610f4257506001600160a01b0387163b15155b15610fca575b60405182906001600160a01b038916906000907fddf252ad1be2c89b69c2b068fc378daa952ba7f163c4a11628f55a4df523b3ef908290a4610f936000888480600101955088610c52565b610fb0576040516368d2bf6b60e11b815260040160405180910390fd5b808203610f48578260015414610fc557600080fd5b61100f565b5b6040516001830192906001600160a01b038916906000907fddf252ad1be2c89b69c2b068fc378daa952ba7f163c4a11628f55a4df523b3ef908290a4808203610fcb575b50600155610ac5565b828054611024906113cc565b90600052602060002090601f016020900481019282611046576000855561108c565b82601f1061105f57805160ff191683800117855561108c565b8280016001018555821561108c579182015b8281111561108c578251825591602001919060010190611071565b5061109892915061109c565b5090565b5b80821115611098576000815560010161109d565b6001600160e01b03198116811461085157600080fd5b6000602082840312156110d957600080fd5b81356110e4816110b1565b9392505050565b60005b838110156111065781810151838201526020016110ee565b8381111561072a5750506000910152565b6000815180845261112f8160208601602086016110eb565b601f01601f19169290920160200192915050565b6020815260006110e46020830184611117565b60006020828403121561116857600080fd5b5035919050565b80356001600160a01b038116811461118657600080fd5b919050565b6000806040838503121561119e57600080fd5b6111a78361116f565b946020939093013593505050565b6000806000606084860312156111ca57600080fd5b6111d38461116f565b92506111e16020850161116f565b9150604084013590509250925092565b60006020828403121561120357600080fd5b6110e48261116f565b634e487b7160e01b600052604160045260246000fd5b600067ffffffffffffffff8084111561123d5761123d61120c565b604051601f8501601f19908116603f011681019082821181831017156112655761126561120c565b8160405280935085815286868601111561127e57600080fd5b858560208301376000602087830101525050509392505050565b6000602082840312156112aa57600080fd5b813567ffffffffffffffff8111156112c157600080fd5b8201601f810184136112d257600080fd5b610d3684823560208401611222565b600080604083850312156112f457600080fd5b6112fd8361116f565b91506020830135801515811461131257600080fd5b809150509250929050565b6000806000806080858703121561133357600080fd5b61133c8561116f565b935061134a6020860161116f565b925060408501359150606085013567ffffffffffffffff81111561136d57600080fd5b8501601f8101871361137e57600080fd5b61138d87823560208401611222565b91505092959194509250565b600080604083850312156113ac57600080fd5b6113b58361116f565b91506113c36020840161116f565b90509250929050565b600181811c908216806113e057607f821691505b60208210810361140057634e487b7160e01b600052602260045260246000fd5b50919050565b6020808252818101527f4f776e61626c653a2063616c6c6572206973206e6f7420746865206f776e6572604082015260600190565b6000815161144d8185602086016110eb565b9290920192915050565b600080845481600182811c91508083168061147357607f831692505b6020808410820361149257634e487b7160e01b86526022600452602486fd5b8180156114a657600181146114b7576114e4565b60ff198616895284890196506114e4565b60008b81526020902060005b868110156114dc5781548b8201529085019083016114c3565b505084890196505b5050505050506115086114f7828661143b565b64173539b7b760d91b815260050190565b95945050505050565b6001600160a01b038581168252841660208201526040810183905260806060820181905260009061154490830184611117565b9695505050505050565b60006020828403121561156057600080fd5b81516110e4816110b1565b634e487b7160e01b600052601160045260246000fd5b6000600182016115935761159361156b565b5060010190565b634e487b7160e01b600052601260045260246000fd5b6000826115bf576115bf61159a565b500490565b6000828210156115d6576115d661156b565b500390565b6000826115ea576115ea61159a565b500690565b600082198211156116025761160261156b565b500190565b634e487b7160e01b600052603260045260246000fdfea264697066735822122067c0b34260296c37e89e07030c3f94d0c0672a12aafc2a350b915e570e3d6c4364736f6c634300080d0033",
  "linkReferences": {},
  "deployedLinkReferences": {}
}